{
  "contractName": "CNHCToken",
  "abi": [
    {
      "inputs": [
        {
          "internalType": "uint256",
          "name": "_initialSupply",
          "type": "uint256"
        },
        {
          "internalType": "uint8",
          "name": "_decimals",
          "type": "uint8"
        }
      ],
      "stateMutability": "nonpayable",
      "type": "constructor"
    },
    {
      "anonymous": false,
      "inputs": [
        {
          "indexed": false,
          "internalType": "address",
          "name": "voter",
          "type": "address"
        }
      ],
      "name": "AddVoter",
      "type": "event"
    },
    {
      "anonymous": false,
      "inputs": [
        {
          "indexed": false,
          "internalType": "address",
          "name": "_user",
          "type": "address"
        }
      ],
      "name": "AddedBlackList",
      "type": "event"
    },
    {
      "anonymous": false,
      "inputs": [
        {
          "indexed": true,
          "internalType": "address",
          "name": "owner",
          "type": "address"
        },
        {
          "indexed": true,
          "internalType": "address",
          "name": "spender",
          "type": "address"
        },
        {
          "indexed": false,
          "internalType": "uint256",
          "name": "value",
          "type": "uint256"
        }
      ],
      "name": "Approval",
      "type": "event"
    },
    {
      "anonymous": false,
      "inputs": [
        {
          "indexed": false,
          "internalType": "uint16",
          "name": "pid",
          "type": "uint16"
        }
      ],
      "name": "CloseProposal",
      "type": "event"
    },
    {
      "anonymous": false,
      "inputs": [
        {
          "indexed": false,
          "internalType": "address",
          "name": "newAddress",
          "type": "address"
        }
      ],
      "name": "Deprecate",
      "type": "event"
    },
    {
      "anonymous": false,
      "inputs": [
        {
          "indexed": true,
          "internalType": "address",
          "name": "blackListedUser",
          "type": "address"
        },
        {
          "indexed": false,
          "internalType": "uint256",
          "name": "balance",
          "type": "uint256"
        }
      ],
      "name": "DestroyedBlackFunds",
      "type": "event"
    },
    {
      "anonymous": false,
      "inputs": [
        {
          "indexed": false,
          "internalType": "uint16",
          "name": "pid",
          "type": "uint16"
        }
      ],
      "name": "DoneProposal",
      "type": "event"
    },
    {
      "anonymous": false,
      "inputs": [
        {
          "indexed": false,
          "internalType": "uint256",
          "name": "feeBasisPoints",
          "type": "uint256"
        },
        {
          "indexed": false,
          "internalType": "uint256",
          "name": "maxFee",
          "type": "uint256"
        }
      ],
      "name": "FeeParams",
      "type": "event"
    },
    {
      "anonymous": false,
      "inputs": [
        {
          "indexed": false,
          "internalType": "uint16",
          "name": "pid",
          "type": "uint16"
        }
      ],
      "name": "OpenProposal",
      "type": "event"
    },
    {
      "anonymous": false,
      "inputs": [
        {
          "indexed": true,
          "internalType": "address",
          "name": "previousOwner",
          "type": "address"
        },
        {
          "indexed": true,
          "internalType": "address",
          "name": "newOwner",
          "type": "address"
        }
      ],
      "name": "OwnershipTransferred",
      "type": "event"
    },
    {
      "anonymous": false,
      "inputs": [
        {
          "indexed": false,
          "internalType": "address",
          "name": "account",
          "type": "address"
        }
      ],
      "name": "Paused",
      "type": "event"
    },
    {
      "anonymous": false,
      "inputs": [
        {
          "indexed": false,
          "internalType": "address",
          "name": "voter",
          "type": "address"
        }
      ],
      "name": "RemoveVoter",
      "type": "event"
    },
    {
      "anonymous": false,
      "inputs": [
        {
          "indexed": false,
          "internalType": "address",
          "name": "_user",
          "type": "address"
        }
      ],
      "name": "RemovedBlackList",
      "type": "event"
    },
    {
      "anonymous": false,
      "inputs": [
        {
          "indexed": true,
          "internalType": "address",
          "name": "from",
          "type": "address"
        },
        {
          "indexed": true,
          "internalType": "address",
          "name": "to",
          "type": "address"
        },
        {
          "indexed": false,
          "internalType": "uint256",
          "name": "value",
          "type": "uint256"
        }
      ],
      "name": "Transfer",
      "type": "event"
    },
    {
      "anonymous": false,
      "inputs": [
        {
          "indexed": false,
          "internalType": "address",
          "name": "account",
          "type": "address"
        }
      ],
      "name": "Unpaused",
      "type": "event"
    },
    {
      "anonymous": false,
      "inputs": [
        {
          "indexed": false,
          "internalType": "uint16",
          "name": "pid",
          "type": "uint16"
        },
        {
          "indexed": false,
          "internalType": "address",
          "name": "voter",
          "type": "address"
        }
      ],
      "name": "VoteProposal",
      "type": "event"
    },
    {
      "inputs": [
        {
          "internalType": "address",
          "name": "_user",
          "type": "address"
        }
      ],
      "name": "addBlackList",
      "outputs": [],
      "stateMutability": "nonpayable",
      "type": "function"
    },
    {
      "inputs": [
        {
          "internalType": "address",
          "name": "_voter",
          "type": "address"
        }
      ],
      "name": "addVoter",
      "outputs": [],
      "stateMutability": "nonpayable",
      "type": "function"
    },
    {
      "inputs": [],
      "name": "basisPointsRate",
      "outputs": [
        {
          "internalType": "uint256",
          "name": "",
          "type": "uint256"
        }
      ],
      "stateMutability": "view",
      "type": "function"
    },
    {
      "inputs": [
        {
          "internalType": "address",
          "name": "",
          "type": "address"
        }
      ],
      "name": "blackList",
      "outputs": [
        {
          "internalType": "bool",
          "name": "",
          "type": "bool"
        }
      ],
      "stateMutability": "view",
      "type": "function"
    },
    {
      "inputs": [
        {
          "internalType": "uint16",
          "name": "_pid",
          "type": "uint16"
        }
      ],
      "name": "closeProposal",
      "outputs": [],
      "stateMutability": "nonpayable",
      "type": "function"
    },
    {
      "inputs": [],
      "name": "decimals",
      "outputs": [
        {
          "internalType": "uint8",
          "name": "",
          "type": "uint8"
        }
      ],
      "stateMutability": "view",
      "type": "function"
    },
    {
      "inputs": [],
      "name": "deprecated",
      "outputs": [
        {
          "internalType": "bool",
          "name": "",
          "type": "bool"
        }
      ],
      "stateMutability": "view",
      "type": "function"
    },
    {
      "inputs": [
        {
          "internalType": "uint16",
          "name": "_pid",
          "type": "uint16"
        }
      ],
      "name": "hasVoted",
      "outputs": [
        {
          "internalType": "bool",
          "name": "",
          "type": "bool"
        }
      ],
      "stateMutability": "view",
      "type": "function"
    },
    {
      "inputs": [
        {
          "internalType": "address",
          "name": "_user",
          "type": "address"
        }
      ],
      "name": "isBlackListUser",
      "outputs": [
        {
          "internalType": "bool",
          "name": "",
          "type": "bool"
        }
      ],
      "stateMutability": "view",
      "type": "function"
    },
    {
      "inputs": [],
      "name": "maximumFee",
      "outputs": [
        {
          "internalType": "uint256",
          "name": "",
          "type": "uint256"
        }
      ],
      "stateMutability": "view",
      "type": "function"
    },
    {
      "inputs": [],
      "name": "name",
      "outputs": [
        {
          "internalType": "string",
          "name": "",
          "type": "string"
        }
      ],
      "stateMutability": "view",
      "type": "function"
    },
    {
      "inputs": [],
      "name": "nextPid",
      "outputs": [
        {
          "internalType": "uint16",
          "name": "",
          "type": "uint16"
        }
      ],
      "stateMutability": "view",
      "type": "function"
    },
    {
      "inputs": [
        {
          "internalType": "address",
          "name": "_voter",
          "type": "address"
        }
      ],
      "name": "openAddVoterProposal",
      "outputs": [],
      "stateMutability": "nonpayable",
      "type": "function"
    },
    {
      "inputs": [
        {
          "internalType": "address",
          "name": "_voter",
          "type": "address"
        }
      ],
      "name": "openRemoveVoterProposal",
      "outputs": [],
      "stateMutability": "nonpayable",
      "type": "function"
    },
    {
      "inputs": [],
      "name": "owner",
      "outputs": [
        {
          "internalType": "address",
          "name": "",
          "type": "address"
        }
      ],
      "stateMutability": "view",
      "type": "function"
    },
    {
      "inputs": [],
      "name": "paused",
      "outputs": [
        {
          "internalType": "bool",
          "name": "",
          "type": "bool"
        }
      ],
      "stateMutability": "view",
      "type": "function"
    },
    {
      "inputs": [
        {
          "internalType": "uint16",
          "name": "",
          "type": "uint16"
        }
      ],
      "name": "proposals",
      "outputs": [
        {
          "internalType": "uint16",
          "name": "pid",
          "type": "uint16"
        },
        {
          "internalType": "uint16",
          "name": "count",
          "type": "uint16"
        },
        {
          "internalType": "bool",
          "name": "done",
          "type": "bool"
        },
        {
          "internalType": "bytes",
          "name": "payload",
          "type": "bytes"
        }
      ],
      "stateMutability": "view",
      "type": "function"
    },
    {
      "inputs": [
        {
          "internalType": "address",
          "name": "_user",
          "type": "address"
        }
      ],
      "name": "removeBlackList",
      "outputs": [],
      "stateMutability": "nonpayable",
      "type": "function"
    },
    {
      "inputs": [
        {
          "internalType": "address",
          "name": "_voter",
          "type": "address"
        }
      ],
      "name": "removeVoter",
      "outputs": [],
      "stateMutability": "nonpayable",
      "type": "function"
    },
    {
      "inputs": [],
      "name": "renounceOwnership",
      "outputs": [],
      "stateMutability": "nonpayable",
      "type": "function"
    },
    {
      "inputs": [
        {
          "internalType": "uint256",
          "name": "newBasisPoints",
          "type": "uint256"
        },
        {
          "internalType": "uint256",
          "name": "newMaxFee",
          "type": "uint256"
        }
      ],
      "name": "setFeeParams",
      "outputs": [],
      "stateMutability": "nonpayable",
      "type": "function"
    },
    {
      "inputs": [],
      "name": "symbol",
      "outputs": [
        {
          "internalType": "string",
          "name": "",
          "type": "string"
        }
      ],
      "stateMutability": "view",
      "type": "function"
    },
    {
      "inputs": [
        {
          "internalType": "address",
          "name": "newOwner",
          "type": "address"
        }
      ],
      "name": "transferOwnership",
      "outputs": [],
      "stateMutability": "nonpayable",
      "type": "function"
    },
    {
      "inputs": [],
      "name": "upgradedAddress",
      "outputs": [
        {
          "internalType": "address",
          "name": "",
          "type": "address"
        }
      ],
      "stateMutability": "view",
      "type": "function"
    },
    {
      "inputs": [
        {
          "internalType": "uint16",
          "name": "_pid",
          "type": "uint16"
        }
      ],
      "name": "voteProposal",
      "outputs": [],
      "stateMutability": "nonpayable",
      "type": "function"
    },
    {
      "inputs": [
        {
          "internalType": "address",
          "name": "",
          "type": "address"
        }
      ],
      "name": "voters",
      "outputs": [
        {
          "internalType": "bool",
          "name": "",
          "type": "bool"
        }
      ],
      "stateMutability": "view",
      "type": "function"
    },
    {
      "inputs": [],
      "name": "votersCount",
      "outputs": [
        {
          "internalType": "uint16",
          "name": "",
          "type": "uint16"
        }
      ],
      "stateMutability": "view",
      "type": "function"
    },
    {
      "inputs": [
        {
          "internalType": "address",
          "name": "account",
          "type": "address"
        }
      ],
      "name": "balanceOf",
      "outputs": [
        {
          "internalType": "uint256",
          "name": "",
          "type": "uint256"
        }
      ],
      "stateMutability": "view",
      "type": "function"
    },
    {
      "inputs": [],
      "name": "totalSupply",
      "outputs": [
        {
          "internalType": "uint256",
          "name": "",
          "type": "uint256"
        }
      ],
      "stateMutability": "view",
      "type": "function"
    },
    {
      "inputs": [
        {
          "internalType": "address",
          "name": "owner",
          "type": "address"
        },
        {
          "internalType": "address",
          "name": "spender",
          "type": "address"
        }
      ],
      "name": "allowance",
      "outputs": [
        {
          "internalType": "uint256",
          "name": "remaining",
          "type": "uint256"
        }
      ],
      "stateMutability": "view",
      "type": "function"
    },
    {
      "inputs": [
        {
          "internalType": "address",
          "name": "account",
          "type": "address"
        }
      ],
      "name": "oldBalanceOf",
      "outputs": [
        {
          "internalType": "uint256",
          "name": "",
          "type": "uint256"
        }
      ],
      "stateMutability": "view",
      "type": "function"
    },
    {
      "inputs": [
        {
          "internalType": "address",
          "name": "recipient",
          "type": "address"
        },
        {
          "internalType": "uint256",
          "name": "amount",
          "type": "uint256"
        }
      ],
      "name": "transfer",
      "outputs": [
        {
          "internalType": "bool",
          "name": "",
          "type": "bool"
        }
      ],
      "stateMutability": "nonpayable",
      "type": "function"
    },
    {
      "inputs": [
        {
          "internalType": "address",
          "name": "sender",
          "type": "address"
        },
        {
          "internalType": "address",
          "name": "recipient",
          "type": "address"
        },
        {
          "internalType": "uint256",
          "name": "amount",
          "type": "uint256"
        }
      ],
      "name": "transferFrom",
      "outputs": [
        {
          "internalType": "bool",
          "name": "",
          "type": "bool"
        }
      ],
      "stateMutability": "nonpayable",
      "type": "function"
    },
    {
      "inputs": [
        {
          "internalType": "address",
          "name": "spender",
          "type": "address"
        },
        {
          "internalType": "uint256",
          "name": "amount",
          "type": "uint256"
        }
      ],
      "name": "approve",
      "outputs": [
        {
          "internalType": "bool",
          "name": "",
          "type": "bool"
        }
      ],
      "stateMutability": "nonpayable",
      "type": "function"
    },
    {
      "inputs": [
        {
          "internalType": "address",
          "name": "spender",
          "type": "address"
        },
        {
          "internalType": "uint256",
          "name": "addedValue",
          "type": "uint256"
        }
      ],
      "name": "increaseAllowance",
      "outputs": [
        {
          "internalType": "bool",
          "name": "",
          "type": "bool"
        }
      ],
      "stateMutability": "nonpayable",
      "type": "function"
    },
    {
      "inputs": [
        {
          "internalType": "address",
          "name": "spender",
          "type": "address"
        },
        {
          "internalType": "uint256",
          "name": "subtractedValue",
          "type": "uint256"
        }
      ],
      "name": "decreaseAllowance",
      "outputs": [
        {
          "internalType": "bool",
          "name": "",
          "type": "bool"
        }
      ],
      "stateMutability": "nonpayable",
      "type": "function"
    },
    {
      "inputs": [
        {
          "internalType": "uint256",
          "name": "amount",
          "type": "uint256"
        }
      ],
      "name": "burn",
      "outputs": [],
      "stateMutability": "nonpayable",
      "type": "function"
    },
    {
      "inputs": [
        {
          "internalType": "address",
          "name": "_account",
          "type": "address"
        },
        {
          "internalType": "uint256",
          "name": "_amount",
          "type": "uint256"
        }
      ],
      "name": "openMintProposal",
      "outputs": [],
      "stateMutability": "nonpayable",
      "type": "function"
    },
    {
      "inputs": [
        {
          "internalType": "address",
          "name": "_user",
          "type": "address"
        }
      ],
      "name": "openDestroyBlackFundsProposal",
      "outputs": [],
      "stateMutability": "nonpayable",
      "type": "function"
    },
    {
      "inputs": [
        {
          "internalType": "address",
          "name": "_account",
          "type": "address"
        },
        {
          "internalType": "uint256",
          "name": "_amount",
          "type": "uint256"
        }
      ],
      "name": "mint",
      "outputs": [],
      "stateMutability": "nonpayable",
      "type": "function"
    },
    {
      "inputs": [
        {
          "internalType": "address",
          "name": "_user",
          "type": "address"
        }
      ],
      "name": "destroyBlackFunds",
      "outputs": [],
      "stateMutability": "nonpayable",
      "type": "function"
    },
    {
      "inputs": [],
      "name": "pause",
      "outputs": [],
      "stateMutability": "nonpayable",
      "type": "function"
    },
    {
      "inputs": [],
      "name": "unpause",
      "outputs": [],
      "stateMutability": "nonpayable",
      "type": "function"
    },
    {
      "inputs": [
        {
          "internalType": "address",
          "name": "_upgradedAddress",
          "type": "address"
        }
      ],
      "name": "deprecate",
      "outputs": [],
      "stateMutability": "nonpayable",
      "type": "function"
    }
  ],
  "bytecode": "0x6080604052600060065560006007556000600a60006101000a81548161ffff021916908361ffff160217905550612710600c60006101000a81548161ffff021916908361ffff1602179055503480156200005857600080fd5b506040516200636a3803806200636a833981810160405260408110156200007e57600080fd5b8101908080519060200190929190805190602001909291905050506040518060400160405280600a81526020017f434e484320546f6b656e000000000000000000000000000000000000000000008152506040518060400160405280600481526020017f434e484300000000000000000000000000000000000000000000000000000000815250818181600390805190602001906200011f929190620006af565b50806004908051906020019062000138929190620006af565b506012600560006101000a81548160ff021916908360ff16021790555050506000620001696200035760201b60201c565b905080600560016101000a81548173ffffffffffffffffffffffffffffffffffffffff021916908373ffffffffffffffffffffffffffffffffffffffff1602179055508073ffffffffffffffffffffffffffffffffffffffff16600073ffffffffffffffffffffffffffffffffffffffff167f8be0079c531659141344cd1fd0a4f28419497f9722a3daafe3b4186f6b6457e060405160405180910390a3505050600160096000620002206200035f60201b60201c565b73ffffffffffffffffffffffffffffffffffffffff1673ffffffffffffffffffffffffffffffffffffffff16815260200190815260200160002060006101000a81548160ff021916908315150217905550600a600081819054906101000a900461ffff168092919060010191906101000a81548161ffff021916908361ffff160217905550507f0ad2eca75347acd5160276fe4b5dad46987e4ff4af9e574195e3e9bc15d7e0ff620002d76200035f60201b60201c565b604051808273ffffffffffffffffffffffffffffffffffffffff16815260200191505060405180910390a16000600c60026101000a81548160ff0219169083151502179055506200032e816200038960201b60201c565b6200034f620003426200035760201b60201c565b83620003a760201b60201c565b505062000755565b600033905090565b6000600560019054906101000a900473ffffffffffffffffffffffffffffffffffffffff16905090565b80600560006101000a81548160ff021916908360ff16021790555050565b600073ffffffffffffffffffffffffffffffffffffffff168273ffffffffffffffffffffffffffffffffffffffff1614156200044b576040517f08c379a000000000000000000000000000000000000000000000000000000000815260040180806020018281038252601f8152602001807f45524332303a206d696e7420746f20746865207a65726f20616464726573730081525060200191505060405180910390fd5b6200045f600083836200058560201b60201c565b6200047b816002546200060a60201b620041111790919060201c565b600281905550620004d9816000808573ffffffffffffffffffffffffffffffffffffffff1673ffffffffffffffffffffffffffffffffffffffff168152602001908152602001600020546200060a60201b620041111790919060201c565b6000808473ffffffffffffffffffffffffffffffffffffffff1673ffffffffffffffffffffffffffffffffffffffff168152602001908152602001600020819055508173ffffffffffffffffffffffffffffffffffffffff16600073ffffffffffffffffffffffffffffffffffffffff167fddf252ad1be2c89b69c2b068fc378daa952ba7f163c4a11628f55a4df523b3ef836040518082815260200191505060405180910390a35050565b6200059d8383836200069360201b620041991760201c565b620005ad6200069860201b60201c565b1562000605576040517f08c379a0000000000000000000000000000000000000000000000000000000008152600401808060200182810382526025815260200180620063456025913960400191505060405180910390fd5b505050565b60008082840190508381101562000689576040517f08c379a000000000000000000000000000000000000000000000000000000000815260040180806020018281038252601b8152602001807f536166654d6174683a206164646974696f6e206f766572666c6f77000000000081525060200191505060405180910390fd5b8091505092915050565b505050565b6000600c60029054906101000a900460ff16905090565b828054600181600116156101000203166002900490600052602060002090601f016020900481019282601f10620006f257805160ff191683800117855562000723565b8280016001018555821562000723579182015b828111156200072257825182559160200191906001019062000705565b5b50905062000732919062000736565b5090565b5b808211156200075157600081600090555060010162000737565b5090565b615be080620007656000396000f3fe608060405234801561001057600080fd5b50600436106102735760003560e01c806370a0823111610151578063b7a3446c116100c3578063de38646f11610087578063de38646f14610ce7578063de513e3d14610d2b578063e4997dc514610d5d578063f2fde38b14610da1578063f3bdc22814610de5578063f4ab9adf14610e2957610273565b8063b7a3446c14610afd578063c497efa314610b55578063d1dc5a8814610c1f578063dd62ed3e14610c51578063dd644f7214610cc957610273565b806395d89b411161011557806395d89b41146108fe57806398c07938146109815780639d2ec188146109a3578063a3ec138d146109db578063a457c2d714610a35578063a9059cbb14610a9957610273565b806370a082311461081a578063715018a6146108725780638456cb591461087c57806386c1ff68146108865780638da5cb5b146108ca57610273565b8063313ce567116101ea57806342966c68116101ae57806342966c68146106ae57806344d664af146106dc5780634838d165146106fe5780635c975abb1461075857806368097127146107785780636ca52520146107c057610273565b8063313ce567146105b357806335390714146105d457806339509351146105f25780633f4ba83a1461065657806340c10f191461066057610273565b80630ecb93c01161023c5780630ecb93c01461041157806311be0c6d1461045557806318160ddd1461049957806323b872dd146104b757806326976e3f1461053b5780632eda8a9a1461056f57610273565b8062c193301461027857806306fdde03146102c65780630753c30c14610349578063095ea7b31461038d5780630e136b19146103f1575b600080fd5b6102c46004803603604081101561028e57600080fd5b81019080803573ffffffffffffffffffffffffffffffffffffffff16906020019092919080359060200190929190505050610e6d565b005b6102ce610fef565b6040518080602001828103825283818151815260200191508051906020019080838360005b8381101561030e5780820151818401526020810190506102f3565b50505050905090810190601f16801561033b5780820380516001836020036101000a031916815260200191505b509250505060405180910390f35b61038b6004803603602081101561035f57600080fd5b81019080803573ffffffffffffffffffffffffffffffffffffffff169060200190929190505050611091565b005b6103d9600480360360408110156103a357600080fd5b81019080803573ffffffffffffffffffffffffffffffffffffffff169060200190929190803590602001909291905050506112a7565b60405180821515815260200191505060405180910390f35b6103f9611492565b60405180821515815260200191505060405180910390f35b6104536004803603602081101561042757600080fd5b81019080803573ffffffffffffffffffffffffffffffffffffffff1690602001909291905050506114a5565b005b6104976004803603602081101561046b57600080fd5b81019080803573ffffffffffffffffffffffffffffffffffffffff169060200190929190505050611617565b005b6104a1611790565b6040518082815260200191505060405180910390f35b610523600480360360608110156104cd57600080fd5b81019080803573ffffffffffffffffffffffffffffffffffffffff169060200190929190803573ffffffffffffffffffffffffffffffffffffffff1690602001909291908035906020019092919050505061185f565b60405180821515815260200191505060405180910390f35b610543611ac9565b604051808273ffffffffffffffffffffffffffffffffffffffff16815260200191505060405180910390f35b6105b16004803603602081101561058557600080fd5b81019080803573ffffffffffffffffffffffffffffffffffffffff169060200190929190505050611aef565b005b6105bb611c68565b604051808260ff16815260200191505060405180910390f35b6105dc611c7f565b6040518082815260200191505060405180910390f35b61063e6004803603604081101561060857600080fd5b81019080803573ffffffffffffffffffffffffffffffffffffffff16906020019092919080359060200190929190505050611c85565b60405180821515815260200191505060405180910390f35b61065e611e70565b005b6106ac6004803603604081101561067657600080fd5b81019080803573ffffffffffffffffffffffffffffffffffffffff16906020019092919080359060200190929190505050611faa565b005b6106da600480360360208110156106c457600080fd5b81019080803590602001909291905050506120bf565b005b6106e4612139565b604051808261ffff16815260200191505060405180910390f35b6107406004803603602081101561071457600080fd5b81019080803573ffffffffffffffffffffffffffffffffffffffff16906020019092919050505061214d565b60405180821515815260200191505060405180910390f35b61076061216d565b60405180821515815260200191505060405180910390f35b6107a86004803603602081101561078e57600080fd5b81019080803561ffff169060200190929190505050612184565b60405180821515815260200191505060405180910390f35b610802600480360360208110156107d657600080fd5b81019080803573ffffffffffffffffffffffffffffffffffffffff16906020019092919050505061228a565b60405180821515815260200191505060405180910390f35b61085c6004803603602081101561083057600080fd5b81019080803573ffffffffffffffffffffffffffffffffffffffff1690602001909291905050506122e0565b6040518082815260200191505060405180910390f35b61087a6123d3565b005b61088461255e565b005b6108c86004803603602081101561089c57600080fd5b81019080803573ffffffffffffffffffffffffffffffffffffffff169060200190929190505050612698565b005b6108d2612945565b604051808273ffffffffffffffffffffffffffffffffffffffff16815260200191505060405180910390f35b61090661296f565b6040518080602001828103825283818151815260200191508051906020019080838360005b8381101561094657808201518184015260208101905061092b565b50505050905090810190601f1680156109735780820380516001836020036101000a031916815260200191505b509250505060405180910390f35b610989612a11565b604051808261ffff16815260200191505060405180910390f35b6109d9600480360360408110156109b957600080fd5b810190808035906020019092919080359060200190929190505050612a25565b005b610a1d600480360360208110156109f157600080fd5b81019080803573ffffffffffffffffffffffffffffffffffffffff169060200190929190505050612b63565b60405180821515815260200191505060405180910390f35b610a8160048036036040811015610a4b57600080fd5b81019080803573ffffffffffffffffffffffffffffffffffffffff16906020019092919080359060200190929190505050612b83565b60405180821515815260200191505060405180910390f35b610ae560048036036040811015610aaf57600080fd5b81019080803573ffffffffffffffffffffffffffffffffffffffff16906020019092919080359060200190929190505050612d6e565b60405180821515815260200191505060405180910390f35b610b3f60048036036020811015610b1357600080fd5b81019080803573ffffffffffffffffffffffffffffffffffffffff169060200190929190505050612f59565b6040518082815260200191505060405180910390f35b610b8560048036036020811015610b6b57600080fd5b81019080803561ffff169060200190929190505050612fd0565b604051808561ffff1681526020018461ffff168152602001831515815260200180602001828103825283818151815260200191508051906020019080838360005b83811015610be1578082015181840152602081019050610bc6565b50505050905090810190601f168015610c0e5780820380516001836020036101000a031916815260200191505b509550505050505060405180910390f35b610c4f60048036036020811015610c3557600080fd5b81019080803561ffff1690602001909291905050506130c1565b005b610cb360048036036040811015610c6757600080fd5b81019080803573ffffffffffffffffffffffffffffffffffffffff169060200190929190803573ffffffffffffffffffffffffffffffffffffffff169060200190929190505050613485565b6040518082815260200191505060405180910390f35b610cd1613598565b6040518082815260200191505060405180910390f35b610d2960048036036020811015610cfd57600080fd5b81019080803573ffffffffffffffffffffffffffffffffffffffff16906020019092919050505061359e565b005b610d5b60048036036020811015610d4157600080fd5b81019080803561ffff169060200190929190505050613717565b005b610d9f60048036036020811015610d7357600080fd5b81019080803573ffffffffffffffffffffffffffffffffffffffff1690602001909291905050506139a0565b005b610de360048036036020811015610db757600080fd5b81019080803573ffffffffffffffffffffffffffffffffffffffff169060200190929190505050613b12565b005b610e2760048036036020811015610dfb57600080fd5b81019080803573ffffffffffffffffffffffffffffffffffffffff169060200190929190505050613d22565b005b610e6b60048036036020811015610e3f57600080fd5b81019080803573ffffffffffffffffffffffffffffffffffffffff169060200190929190505050613ef0565b005b610e7561419e565b73ffffffffffffffffffffffffffffffffffffffff16600560019054906101000a900473ffffffffffffffffffffffffffffffffffffffff1673ffffffffffffffffffffffffffffffffffffffff1614610f37576040517f08c379a00000000000000000000000000000000000000000000000000000000081526004018080602001828103825260208152602001807f4f776e61626c653a2063616c6c6572206973206e6f7420746865206f776e657281525060200191505060405180910390fd5b610feb8282604051602401808373ffffffffffffffffffffffffffffffffffffffff168152602001828152602001925050506040516020818303038152906040527f40c10f19000000000000000000000000000000000000000000000000000000007bffffffffffffffffffffffffffffffffffffffffffffffffffffffff19166020820180517bffffffffffffffffffffffffffffffffffffffffffffffffffffffff83818316178352505050506141a6565b5050565b606060038054600181600116156101000203166002900480601f0160208091040260200160405190810160405280929190818152602001828054600181600116156101000203166002900480156110875780601f1061105c57610100808354040283529160200191611087565b820191906000526020600020905b81548152906001019060200180831161106a57829003601f168201915b5050505050905090565b61109961419e565b73ffffffffffffffffffffffffffffffffffffffff16600560019054906101000a900473ffffffffffffffffffffffffffffffffffffffff1673ffffffffffffffffffffffffffffffffffffffff161461115b576040517f08c379a00000000000000000000000000000000000000000000000000000000081526004018080602001828103825260208152602001807f4f776e61626c653a2063616c6c6572206973206e6f7420746865206f776e657281525060200191505060405180910390fd5b600c60179054906101000a900460ff16156111c1576040517f08c379a0000000000000000000000000000000000000000000000000000000008152600401808060200182810382526022815260200180615a4f6022913960400191505060405180910390fd5b600073ffffffffffffffffffffffffffffffffffffffff168173ffffffffffffffffffffffffffffffffffffffff1614156111fb57600080fd5b6001600c60176101000a81548160ff02191690831515021790555080600c60036101000a81548173ffffffffffffffffffffffffffffffffffffffff021916908373ffffffffffffffffffffffffffffffffffffffff1602179055507fcc358699805e9a8b7f77b522628c7cb9abd07d9efb86b6fb616af1609036a99e81604051808273ffffffffffffffffffffffffffffffffffffffff16815260200191505060405180910390a150565b60006112b161419e565b6112ba8161228a565b15611310576040517f08c379a00000000000000000000000000000000000000000000000000000000081526004018080602001828103825260278152602001806159416027913960400191505060405180910390fd5b6113198461228a565b1561136f576040517f08c379a000000000000000000000000000000000000000000000000000000000815260040180806020018281038252602a8152602001806157db602a913960400191505060405180910390fd5b600c60179054906101000a900460ff161561147e57600c60039054906101000a900473ffffffffffffffffffffffffffffffffffffffff1673ffffffffffffffffffffffffffffffffffffffff1663aee92d336113ca61419e565b86866040518463ffffffff1660e01b8152600401808473ffffffffffffffffffffffffffffffffffffffff1681526020018373ffffffffffffffffffffffffffffffffffffffff1681526020018281526020019350505050602060405180830381600087803b15801561143c57600080fd5b505af1158015611450573d6000803e3d6000fd5b505050506040513d602081101561146657600080fd5b8101908080519060200190929190505050915061148b565b61148884846142eb565b91505b5092915050565b600c60179054906101000a900460ff1681565b6114ad61419e565b73ffffffffffffffffffffffffffffffffffffffff16600560019054906101000a900473ffffffffffffffffffffffffffffffffffffffff1673ffffffffffffffffffffffffffffffffffffffff161461156f576040517f08c379a00000000000000000000000000000000000000000000000000000000081526004018080602001828103825260208152602001807f4f776e61626c653a2063616c6c6572206973206e6f7420746865206f776e657281525060200191505060405180910390fd5b6001600860008373ffffffffffffffffffffffffffffffffffffffff1673ffffffffffffffffffffffffffffffffffffffff16815260200190815260200160002060006101000a81548160ff0219169083151502179055507f42e160154868087d6bfdc0ca23d96a1c1cfa32f1b72ba9ba27b69b98a0d819dc81604051808273ffffffffffffffffffffffffffffffffffffffff16815260200191505060405180910390a150565b61161f61419e565b73ffffffffffffffffffffffffffffffffffffffff16600560019054906101000a900473ffffffffffffffffffffffffffffffffffffffff1673ffffffffffffffffffffffffffffffffffffffff16146116e1576040517f08c379a00000000000000000000000000000000000000000000000000000000081526004018080602001828103825260208152602001807f4f776e61626c653a2063616c6c6572206973206e6f7420746865206f776e657281525060200191505060405180910390fd5b61178d81604051602401808273ffffffffffffffffffffffffffffffffffffffff1681526020019150506040516020818303038152906040527ff3bdc228000000000000000000000000000000000000000000000000000000007bffffffffffffffffffffffffffffffffffffffffffffffffffffffff19166020820180517bffffffffffffffffffffffffffffffffffffffffffffffffffffffff83818316178352505050506141a6565b50565b6000600c60179054906101000a900460ff161561185157600c60039054906101000a900473ffffffffffffffffffffffffffffffffffffffff1673ffffffffffffffffffffffffffffffffffffffff166318160ddd6040518163ffffffff1660e01b815260040160206040518083038186803b15801561180f57600080fd5b505afa158015611823573d6000803e3d6000fd5b505050506040513d602081101561183957600080fd5b8101908080519060200190929190505050905061185c565b611859614309565b90505b90565b600061186961419e565b6118728161228a565b156118c8576040517f08c379a00000000000000000000000000000000000000000000000000000000081526004018080602001828103825260278152602001806159416027913960400191505060405180910390fd5b6118d18561228a565b15611927576040517f08c379a00000000000000000000000000000000000000000000000000000000081526004018080602001828103825260298152602001806158f26029913960400191505060405180910390fd5b6119308461228a565b15611986576040517f08c379a000000000000000000000000000000000000000000000000000000000815260040180806020018281038252602c815260200180615834602c913960400191505060405180910390fd5b600c60179054906101000a900460ff1615611ab357600c60039054906101000a900473ffffffffffffffffffffffffffffffffffffffff1673ffffffffffffffffffffffffffffffffffffffff16638b477adb6119e161419e565b8787876040518563ffffffff1660e01b8152600401808573ffffffffffffffffffffffffffffffffffffffff1681526020018473ffffffffffffffffffffffffffffffffffffffff1681526020018373ffffffffffffffffffffffffffffffffffffffff168152602001828152602001945050505050602060405180830381600087803b158015611a7157600080fd5b505af1158015611a85573d6000803e3d6000fd5b505050506040513d6020811015611a9b57600080fd5b81019080805190602001909291905050509150611ac1565b611abe858585614313565b91505b509392505050565b600c60039054906101000a900473ffffffffffffffffffffffffffffffffffffffff1681565b611af761419e565b73ffffffffffffffffffffffffffffffffffffffff16600560019054906101000a900473ffffffffffffffffffffffffffffffffffffffff1673ffffffffffffffffffffffffffffffffffffffff1614611bb9576040517f08c379a00000000000000000000000000000000000000000000000000000000081526004018080602001828103825260208152602001807f4f776e61626c653a2063616c6c6572206973206e6f7420746865206f776e657281525060200191505060405180910390fd5b611c6581604051602401808273ffffffffffffffffffffffffffffffffffffffff1681526020019150506040516020818303038152906040527f86c1ff68000000000000000000000000000000000000000000000000000000007bffffffffffffffffffffffffffffffffffffffffffffffffffffffff19166020820180517bffffffffffffffffffffffffffffffffffffffffffffffffffffffff83818316178352505050506141a6565b50565b6000600560009054906101000a900460ff16905090565b60075481565b6000611c8f61419e565b611c988161228a565b15611cee576040517f08c379a00000000000000000000000000000000000000000000000000000000081526004018080602001828103825260278152602001806159416027913960400191505060405180910390fd5b611cf78461228a565b15611d4d576040517f08c379a000000000000000000000000000000000000000000000000000000000815260040180806020018281038252602a8152602001806157db602a913960400191505060405180910390fd5b600c60179054906101000a900460ff1615611e5c57600c60039054906101000a900473ffffffffffffffffffffffffffffffffffffffff1673ffffffffffffffffffffffffffffffffffffffff1663a9538157611da861419e565b86866040518463ffffffff1660e01b8152600401808473ffffffffffffffffffffffffffffffffffffffff1681526020018373ffffffffffffffffffffffffffffffffffffffff1681526020018281526020019350505050602060405180830381600087803b158015611e1a57600080fd5b505af1158015611e2e573d6000803e3d6000fd5b505050506040513d6020811015611e4457600080fd5b81019080805190602001909291905050509150611e69565b611e6684846144f5565b91505b5092915050565b611e7861419e565b73ffffffffffffffffffffffffffffffffffffffff16600560019054906101000a900473ffffffffffffffffffffffffffffffffffffffff1673ffffffffffffffffffffffffffffffffffffffff1614611f3a576040517f08c379a00000000000000000000000000000000000000000000000000000000081526004018080602001828103825260208152602001807f4f776e61626c653a2063616c6c6572206973206e6f7420746865206f776e657281525060200191505060405180910390fd5b600c60179054906101000a900460ff1615611fa0576040517f08c379a0000000000000000000000000000000000000000000000000000000008152600401808060200182810382526022815260200180615a4f6022913960400191505060405180910390fd5b611fa86145a8565b565b3073ffffffffffffffffffffffffffffffffffffffff163373ffffffffffffffffffffffffffffffffffffffff161461204b576040517f08c379a000000000000000000000000000000000000000000000000000000000815260040180806020018281038252601b8152602001807f566f7461626c653a206f6e6c792073656c662063616e2063616c6c000000000081525060200191505060405180910390fd5b600c60179054906101000a900460ff16156120b1576040517f08c379a0000000000000000000000000000000000000000000000000000000008152600401808060200182810382526022815260200180615a4f6022913960400191505060405180910390fd5b6120bb828261469b565b5050565b600c60179054906101000a900460ff1615612125576040517f08c379a0000000000000000000000000000000000000000000000000000000008152600401808060200182810382526022815260200180615a4f6022913960400191505060405180910390fd5b61213661213061419e565b82614862565b50565b600c60009054906101000a900461ffff1681565b60086020528060005260406000206000915054906101000a900460ff1681565b6000600c60029054906101000a900460ff16905090565b600080600b60008461ffff1661ffff16815260200190815260200160002090508261ffff168160000160009054906101000a900461ffff1661ffff1614612233576040517f08c379a000000000000000000000000000000000000000000000000000000000815260040180806020018281038252601c8152602001807f566f7461626c653a2070726f706f73616c206e6f74206578697374730000000081525060200191505060405180910390fd5b8060020160003373ffffffffffffffffffffffffffffffffffffffff1673ffffffffffffffffffffffffffffffffffffffff16815260200190815260200160002060009054906101000a900460ff16915050919050565b6000600860008373ffffffffffffffffffffffffffffffffffffffff1673ffffffffffffffffffffffffffffffffffffffff16815260200190815260200160002060009054906101000a900460ff169050919050565b6000600c60179054906101000a900460ff16156123c257600c60039054906101000a900473ffffffffffffffffffffffffffffffffffffffff1673ffffffffffffffffffffffffffffffffffffffff166370a08231836040518263ffffffff1660e01b8152600401808273ffffffffffffffffffffffffffffffffffffffff16815260200191505060206040518083038186803b15801561238057600080fd5b505afa158015612394573d6000803e3d6000fd5b505050506040513d60208110156123aa57600080fd5b810190808051906020019092919050505090506123ce565b6123cb82614a26565b90505b919050565b6123db61419e565b73ffffffffffffffffffffffffffffffffffffffff16600560019054906101000a900473ffffffffffffffffffffffffffffffffffffffff1673ffffffffffffffffffffffffffffffffffffffff161461249d576040517f08c379a00000000000000000000000000000000000000000000000000000000081526004018080602001828103825260208152602001807f4f776e61626c653a2063616c6c6572206973206e6f7420746865206f776e657281525060200191505060405180910390fd5b600073ffffffffffffffffffffffffffffffffffffffff16600560019054906101000a900473ffffffffffffffffffffffffffffffffffffffff1673ffffffffffffffffffffffffffffffffffffffff167f8be0079c531659141344cd1fd0a4f28419497f9722a3daafe3b4186f6b6457e060405160405180910390a36000600560016101000a81548173ffffffffffffffffffffffffffffffffffffffff021916908373ffffffffffffffffffffffffffffffffffffffff160217905550565b61256661419e565b73ffffffffffffffffffffffffffffffffffffffff16600560019054906101000a900473ffffffffffffffffffffffffffffffffffffffff1673ffffffffffffffffffffffffffffffffffffffff1614612628576040517f08c379a00000000000000000000000000000000000000000000000000000000081526004018080602001828103825260208152602001807f4f776e61626c653a2063616c6c6572206973206e6f7420746865206f776e657281525060200191505060405180910390fd5b600c60179054906101000a900460ff161561268e576040517f08c379a0000000000000000000000000000000000000000000000000000000008152600401808060200182810382526022815260200180615a4f6022913960400191505060405180910390fd5b612696614a6e565b565b3073ffffffffffffffffffffffffffffffffffffffff163373ffffffffffffffffffffffffffffffffffffffff1614612739576040517f08c379a000000000000000000000000000000000000000000000000000000000815260040180806020018281038252601b8152602001807f566f7461626c653a206f6e6c792073656c662063616e2063616c6c000000000081525060200191505060405180910390fd5b600960008273ffffffffffffffffffffffffffffffffffffffff1673ffffffffffffffffffffffffffffffffffffffff16815260200190815260200160002060009054906101000a900460ff166127db576040517f08c379a0000000000000000000000000000000000000000000000000000000008152600401808060200182810382526024815260200180615ae76024913960400191505060405180910390fd5b6127e3612945565b73ffffffffffffffffffffffffffffffffffffffff168173ffffffffffffffffffffffffffffffffffffffff161415612867576040517f08c379a0000000000000000000000000000000000000000000000000000000008152600401808060200182810382526021815260200180615b0b6021913960400191505060405180910390fd5b6000600960008373ffffffffffffffffffffffffffffffffffffffff1673ffffffffffffffffffffffffffffffffffffffff16815260200190815260200160002060006101000a81548160ff021916908315150217905550600a600081819054906101000a900461ffff16809291906001900391906101000a81548161ffff021916908361ffff160217905550507f1c959242c0718835c6a0d1fdc1c02056059ed6025bd0bfb268523cf23825ac4f81604051808273ffffffffffffffffffffffffffffffffffffffff16815260200191505060405180910390a150565b6000600560019054906101000a900473ffffffffffffffffffffffffffffffffffffffff16905090565b606060048054600181600116156101000203166002900480601f016020809104026020016040519081016040528092919081815260200182805460018160011615610100020316600290048015612a075780601f106129dc57610100808354040283529160200191612a07565b820191906000526020600020905b8154815290600101906020018083116129ea57829003601f168201915b5050505050905090565b600a60009054906101000a900461ffff1681565b612a2d61419e565b73ffffffffffffffffffffffffffffffffffffffff16600560019054906101000a900473ffffffffffffffffffffffffffffffffffffffff1673ffffffffffffffffffffffffffffffffffffffff1614612aef576040517f08c379a00000000000000000000000000000000000000000000000000000000081526004018080602001828103825260208152602001807f4f776e61626c653a2063616c6c6572206973206e6f7420746865206f776e657281525060200191505060405180910390fd5b81600681905550612b16612b01611c68565b60ff16600a0a82614b6290919063ffffffff16565b6007819055507f985878220f966f0190ab4e8e8f7c5e724e21f793272f6a4c315d6d98b6349a8a600654600754604051808381526020018281526020019250505060405180910390a15050565b60096020528060005260406000206000915054906101000a900460ff1681565b6000612b8d61419e565b612b968161228a565b15612bec576040517f08c379a00000000000000000000000000000000000000000000000000000000081526004018080602001828103825260278152602001806159416027913960400191505060405180910390fd5b612bf58461228a565b15612c4b576040517f08c379a000000000000000000000000000000000000000000000000000000000815260040180806020018281038252602a8152602001806157db602a913960400191505060405180910390fd5b600c60179054906101000a900460ff1615612d5a57600c60039054906101000a900473ffffffffffffffffffffffffffffffffffffffff1673ffffffffffffffffffffffffffffffffffffffff16636001279f612ca661419e565b86866040518463ffffffff1660e01b8152600401808473ffffffffffffffffffffffffffffffffffffffff1681526020018373ffffffffffffffffffffffffffffffffffffffff1681526020018281526020019350505050602060405180830381600087803b158015612d1857600080fd5b505af1158015612d2c573d6000803e3d6000fd5b505050506040513d6020811015612d4257600080fd5b81019080805190602001909291905050509150612d67565b612d648484614be8565b91505b5092915050565b6000612d7861419e565b612d818161228a565b15612dd7576040517f08c379a00000000000000000000000000000000000000000000000000000000081526004018080602001828103825260278152602001806159416027913960400191505060405180910390fd5b612de08461228a565b15612e36576040517f08c379a000000000000000000000000000000000000000000000000000000000815260040180806020018281038252602c815260200180615834602c913960400191505060405180910390fd5b600c60179054906101000a900460ff1615612f4557600c60039054906101000a900473ffffffffffffffffffffffffffffffffffffffff1673ffffffffffffffffffffffffffffffffffffffff16636e18980a612e9161419e565b86866040518463ffffffff1660e01b8152600401808473ffffffffffffffffffffffffffffffffffffffff1681526020018373ffffffffffffffffffffffffffffffffffffffff1681526020018281526020019350505050602060405180830381600087803b158015612f0357600080fd5b505af1158015612f17573d6000803e3d6000fd5b505050506040513d6020811015612f2d57600080fd5b81019080805190602001909291905050509150612f52565b612f4f8484614cb5565b91505b5092915050565b6000600c60179054906101000a900460ff16612fc0576040517f08c379a0000000000000000000000000000000000000000000000000000000008152600401808060200182810382526022815260200180615b646022913960400191505060405180910390fd5b612fc982614a26565b9050919050565b600b6020528060005260406000206000915090508060000160009054906101000a900461ffff16908060000160029054906101000a900461ffff16908060000160049054906101000a900460ff1690806001018054600181600116156101000203166002900480601f0160208091040260200160405190810160405280929190818152602001828054600181600116156101000203166002900480156130b75780601f1061308c576101008083540402835291602001916130b7565b820191906000526020600020905b81548152906001019060200180831161309a57829003601f168201915b5050505050905084565b600960003373ffffffffffffffffffffffffffffffffffffffff1673ffffffffffffffffffffffffffffffffffffffff16815260200190815260200160002060009054906101000a900460ff16613180576040517f08c379a000000000000000000000000000000000000000000000000000000000815260040180806020018281038252601c8152602001807f566f7461626c653a206f6e6c7920766f7465722063616e2063616c6c0000000081525060200191505060405180910390fd5b808061ffff16600b60008361ffff1661ffff16815260200190815260200160002060000160009054906101000a900461ffff1661ffff161461322a576040517f08c379a000000000000000000000000000000000000000000000000000000000815260040180806020018281038252601c8152602001807f566f7461626c653a2070726f706f73616c206e6f74206578697374730000000081525060200191505060405180910390fd5b600b60008261ffff1661ffff16815260200190815260200160002060000160049054906101000a900460ff16156132c9576040517f08c379a00000000000000000000000000000000000000000000000000000000081526004018080602001828103825260198152602001807f566f7461626c653a2070726f706f73616c20697320646f6e650000000000000081525060200191505060405180910390fd5b6000600b60008461ffff1661ffff16815260200190815260200160002090508060020160003373ffffffffffffffffffffffffffffffffffffffff1673ffffffffffffffffffffffffffffffffffffffff16815260200190815260200160002060009054906101000a900460ff161561338d576040517f08c379a00000000000000000000000000000000000000000000000000000000081526004018080602001828103825260288152602001806158ca6028913960400191505060405180910390fd5b60018160020160003373ffffffffffffffffffffffffffffffffffffffff1673ffffffffffffffffffffffffffffffffffffffff16815260200190815260200160002060006101000a81548160ff02191690831515021790555080600001600281819054906101000a900461ffff168092919060010191906101000a81548161ffff021916908361ffff160217905550507f7313139463b6c2096b7200e02a3c6452f21ba9b1fc1a7893f8fea395f96fb1f58333604051808361ffff1681526020018273ffffffffffffffffffffffffffffffffffffffff1681526020019250505060405180910390a161348081614d09565b505050565b6000600c60179054906101000a900460ff161561358557600c60039054906101000a900473ffffffffffffffffffffffffffffffffffffffff1673ffffffffffffffffffffffffffffffffffffffff1663dd62ed3e84846040518363ffffffff1660e01b8152600401808373ffffffffffffffffffffffffffffffffffffffff1681526020018273ffffffffffffffffffffffffffffffffffffffff1681526020019250505060206040518083038186803b15801561354357600080fd5b505afa158015613557573d6000803e3d6000fd5b505050506040513d602081101561356d57600080fd5b81019080805190602001909291905050509050613592565b61358f8383614eee565b90505b92915050565b60065481565b6135a661419e565b73ffffffffffffffffffffffffffffffffffffffff16600560019054906101000a900473ffffffffffffffffffffffffffffffffffffffff1673ffffffffffffffffffffffffffffffffffffffff1614613668576040517f08c379a00000000000000000000000000000000000000000000000000000000081526004018080602001828103825260208152602001807f4f776e61626c653a2063616c6c6572206973206e6f7420746865206f776e657281525060200191505060405180910390fd5b61371481604051602401808273ffffffffffffffffffffffffffffffffffffffff1681526020019150506040516020818303038152906040527ff4ab9adf000000000000000000000000000000000000000000000000000000007bffffffffffffffffffffffffffffffffffffffffffffffffffffffff19166020820180517bffffffffffffffffffffffffffffffffffffffffffffffffffffffff83818316178352505050506141a6565b50565b808061ffff16600b60008361ffff1661ffff16815260200190815260200160002060000160009054906101000a900461ffff1661ffff16146137c1576040517f08c379a000000000000000000000000000000000000000000000000000000000815260040180806020018281038252601c8152602001807f566f7461626c653a2070726f706f73616c206e6f74206578697374730000000081525060200191505060405180910390fd5b600b60008261ffff1661ffff16815260200190815260200160002060000160049054906101000a900460ff1615613860576040517f08c379a00000000000000000000000000000000000000000000000000000000081526004018080602001828103825260198152602001807f566f7461626c653a2070726f706f73616c20697320646f6e650000000000000081525060200191505060405180910390fd5b61386861419e565b73ffffffffffffffffffffffffffffffffffffffff16600560019054906101000a900473ffffffffffffffffffffffffffffffffffffffff1673ffffffffffffffffffffffffffffffffffffffff161461392a576040517f08c379a00000000000000000000000000000000000000000000000000000000081526004018080602001828103825260208152602001807f4f776e61626c653a2063616c6c6572206973206e6f7420746865206f776e657281525060200191505060405180910390fd5b6001600b60008461ffff1661ffff16815260200190815260200160002060000160046101000a81548160ff0219169083151502179055507f90e42b47bbe58e6e72598349aa50e83f3c8afe5dba12be98e47fac63c50d3b9f82604051808261ffff16815260200191505060405180910390a15050565b6139a861419e565b73ffffffffffffffffffffffffffffffffffffffff16600560019054906101000a900473ffffffffffffffffffffffffffffffffffffffff1673ffffffffffffffffffffffffffffffffffffffff1614613a6a576040517f08c379a00000000000000000000000000000000000000000000000000000000081526004018080602001828103825260208152602001807f4f776e61626c653a2063616c6c6572206973206e6f7420746865206f776e657281525060200191505060405180910390fd5b6000600860008373ffffffffffffffffffffffffffffffffffffffff1673ffffffffffffffffffffffffffffffffffffffff16815260200190815260200160002060006101000a81548160ff0219169083151502179055507fd7e9ec6e6ecd65492dce6bf513cd6867560d49544421d0783ddf06e76c24470c81604051808273ffffffffffffffffffffffffffffffffffffffff16815260200191505060405180910390a150565b613b1a61419e565b73ffffffffffffffffffffffffffffffffffffffff16600560019054906101000a900473ffffffffffffffffffffffffffffffffffffffff1673ffffffffffffffffffffffffffffffffffffffff1614613bdc576040517f08c379a00000000000000000000000000000000000000000000000000000000081526004018080602001828103825260208152602001807f4f776e61626c653a2063616c6c6572206973206e6f7420746865206f776e657281525060200191505060405180910390fd5b600073ffffffffffffffffffffffffffffffffffffffff168173ffffffffffffffffffffffffffffffffffffffff161415613c62576040517f08c379a00000000000000000000000000000000000000000000000000000000081526004018080602001828103825260268152602001806158826026913960400191505060405180910390fd5b8073ffffffffffffffffffffffffffffffffffffffff16600560019054906101000a900473ffffffffffffffffffffffffffffffffffffffff1673ffffffffffffffffffffffffffffffffffffffff167f8be0079c531659141344cd1fd0a4f28419497f9722a3daafe3b4186f6b6457e060405160405180910390a380600560016101000a81548173ffffffffffffffffffffffffffffffffffffffff021916908373ffffffffffffffffffffffffffffffffffffffff16021790555050565b3073ffffffffffffffffffffffffffffffffffffffff163373ffffffffffffffffffffffffffffffffffffffff1614613dc3576040517f08c379a000000000000000000000000000000000000000000000000000000000815260040180806020018281038252601b8152602001807f566f7461626c653a206f6e6c792073656c662063616e2063616c6c000000000081525060200191505060405180910390fd5b600c60179054906101000a900460ff1615613e29576040517f08c379a0000000000000000000000000000000000000000000000000000000008152600401808060200182810382526022815260200180615a4f6022913960400191505060405180910390fd5b613e328161228a565b613e87576040517f08c379a0000000000000000000000000000000000000000000000000000000008152600401808060200182810382526038815260200180615b2c6038913960400191505060405180910390fd5b6000613e92826122e0565b9050613e9e8282614862565b8173ffffffffffffffffffffffffffffffffffffffff167f61e6e66b0d6339b2980aecc6ccc0039736791f0ccde9ed512e789a7fbdd698c6826040518082815260200191505060405180910390a25050565b3073ffffffffffffffffffffffffffffffffffffffff163373ffffffffffffffffffffffffffffffffffffffff1614613f91576040517f08c379a000000000000000000000000000000000000000000000000000000000815260040180806020018281038252601b8152602001807f566f7461626c653a206f6e6c792073656c662063616e2063616c6c000000000081525060200191505060405180910390fd5b600960008273ffffffffffffffffffffffffffffffffffffffff1673ffffffffffffffffffffffffffffffffffffffff16815260200190815260200160002060009054906101000a900460ff1615614034576040517f08c379a00000000000000000000000000000000000000000000000000000000081526004018080602001828103825260288152602001806159686028913960400191505060405180910390fd5b6001600960008373ffffffffffffffffffffffffffffffffffffffff1673ffffffffffffffffffffffffffffffffffffffff16815260200190815260200160002060006101000a81548160ff021916908315150217905550600a600081819054906101000a900461ffff168092919060010191906101000a81548161ffff021916908361ffff160217905550507f0ad2eca75347acd5160276fe4b5dad46987e4ff4af9e574195e3e9bc15d7e0ff81604051808273ffffffffffffffffffffffffffffffffffffffff16815260200191505060405180910390a150565b60008082840190508381101561418f576040517f08c379a000000000000000000000000000000000000000000000000000000000815260040180806020018281038252601b8152602001807f536166654d6174683a206164646974696f6e206f766572666c6f77000000000081525060200191505060405180910390fd5b8091505092915050565b505050565b600033905090565b6000600c600081819054906101000a900461ffff168092919060010191906101000a81548161ffff021916908361ffff160217905550905060405180608001604052808261ffff168152602001600061ffff16815260200160001515815260200183815250600b60008361ffff1661ffff16815260200190815260200160002060008201518160000160006101000a81548161ffff021916908361ffff16021790555060208201518160000160026101000a81548161ffff021916908361ffff16021790555060408201518160000160046101000a81548160ff02191690831515021790555060608201518160010190805190602001906142a892919061571a565b509050507f51997f8715e3c335ae20eab683f42aa156edf3848416b9187dd726408a25d94381604051808261ffff16815260200191505060405180910390a15050565b60006142ff6142f861419e565b8484614f75565b6001905092915050565b6000600254905090565b60008073ffffffffffffffffffffffffffffffffffffffff168373ffffffffffffffffffffffffffffffffffffffff16141561439a576040517f08c379a000000000000000000000000000000000000000000000000000000000815260040180806020018281038252602a815260200180615a04602a913960400191505060405180910390fd5b6143a3846122e0565b8211156143fb576040517f08c379a000000000000000000000000000000000000000000000000000000000815260040180806020018281038252602d815260200180615a96602d913960400191505060405180910390fd5b6144058433613485565b82111561445d576040517f08c379a000000000000000000000000000000000000000000000000000000000815260040180806020018281038252602e8152602001806159d6602e913960400191505060405180910390fd5b60006144688361516c565b9050600061447f82856151b390919063ffffffff16565b905061448c8686836151fd565b60008211156144a8576144a7866144a1612945565b846151fd565b5b6144e886336144e3876040518060600160405280602f8152602001615805602f91396144d48c33613485565b6154be9092919063ffffffff16565b614f75565b6001925050509392505050565b600061459e61450261419e565b84614599856001600061451361419e565b73ffffffffffffffffffffffffffffffffffffffff1673ffffffffffffffffffffffffffffffffffffffff16815260200190815260200160002060008973ffffffffffffffffffffffffffffffffffffffff1673ffffffffffffffffffffffffffffffffffffffff1681526020019081526020016000205461411190919063ffffffff16565b614f75565b6001905092915050565b600c60029054906101000a900460ff1661462a576040517f08c379a00000000000000000000000000000000000000000000000000000000081526004018080602001828103825260148152602001807f5061757361626c653a206e6f742070617573656400000000000000000000000081525060200191505060405180910390fd5b6000600c60026101000a81548160ff0219169083151502179055507f5db9ee0a495bf2e6ff9c91a7834c1ba4fdd244a5e8aa4e537bd38aeae4b073aa61466e61419e565b604051808273ffffffffffffffffffffffffffffffffffffffff16815260200191505060405180910390a1565b600073ffffffffffffffffffffffffffffffffffffffff168273ffffffffffffffffffffffffffffffffffffffff16141561473e576040517f08c379a000000000000000000000000000000000000000000000000000000000815260040180806020018281038252601f8152602001807f45524332303a206d696e7420746f20746865207a65726f20616464726573730081525060200191505060405180910390fd5b61474a6000838361557e565b61475f8160025461411190919063ffffffff16565b6002819055506147b6816000808573ffffffffffffffffffffffffffffffffffffffff1673ffffffffffffffffffffffffffffffffffffffff1681526020019081526020016000205461411190919063ffffffff16565b6000808473ffffffffffffffffffffffffffffffffffffffff1673ffffffffffffffffffffffffffffffffffffffff168152602001908152602001600020819055508173ffffffffffffffffffffffffffffffffffffffff16600073ffffffffffffffffffffffffffffffffffffffff167fddf252ad1be2c89b69c2b068fc378daa952ba7f163c4a11628f55a4df523b3ef836040518082815260200191505060405180910390a35050565b600073ffffffffffffffffffffffffffffffffffffffff168273ffffffffffffffffffffffffffffffffffffffff1614156148e8576040517f08c379a0000000000000000000000000000000000000000000000000000000008152600401808060200182810382526021815260200180615a2e6021913960400191505060405180910390fd5b6148f48260008361557e565b61495f81604051806060016040528060228152602001615860602291396000808673ffffffffffffffffffffffffffffffffffffffff1673ffffffffffffffffffffffffffffffffffffffff168152602001908152602001600020546154be9092919063ffffffff16565b6000808473ffffffffffffffffffffffffffffffffffffffff1673ffffffffffffffffffffffffffffffffffffffff168152602001908152602001600020819055506149b6816002546151b390919063ffffffff16565b600281905550600073ffffffffffffffffffffffffffffffffffffffff168273ffffffffffffffffffffffffffffffffffffffff167fddf252ad1be2c89b69c2b068fc378daa952ba7f163c4a11628f55a4df523b3ef836040518082815260200191505060405180910390a35050565b60008060008373ffffffffffffffffffffffffffffffffffffffff1673ffffffffffffffffffffffffffffffffffffffff168152602001908152602001600020549050919050565b600c60029054906101000a900460ff1615614af1576040517f08c379a00000000000000000000000000000000000000000000000000000000081526004018080602001828103825260108152602001807f5061757361626c653a207061757365640000000000000000000000000000000081525060200191505060405180910390fd5b6001600c60026101000a81548160ff0219169083151502179055507f62e78cea01bee320cd4e420270b5ea74000d11b0c9f74754ebdbfc544b05a258614b3561419e565b604051808273ffffffffffffffffffffffffffffffffffffffff16815260200191505060405180910390a1565b600080831415614b755760009050614be2565b6000828402905082848281614b8657fe5b0414614bdd576040517f08c379a00000000000000000000000000000000000000000000000000000000081526004018080602001828103825260218152602001806159906021913960400191505060405180910390fd5b809150505b92915050565b6000614cab614bf561419e565b84614ca685604051806060016040528060258152602001615b866025913960016000614c1f61419e565b73ffffffffffffffffffffffffffffffffffffffff1673ffffffffffffffffffffffffffffffffffffffff16815260200190815260200160002060008a73ffffffffffffffffffffffffffffffffffffffff1673ffffffffffffffffffffffffffffffffffffffff168152602001908152602001600020546154be9092919063ffffffff16565b614f75565b6001905092915050565b600080614cc18361516c565b90506000614cd882856151b390919063ffffffff16565b9050614ce485826155ec565b506000821115614d0157614cff614cf9612945565b836155ec565b505b505092915050565b6002600a60009054906101000a900461ffff1661ffff1681614d2757fe5b0461ffff168160000160029054906101000a900461ffff1661ffff161115614eeb5760003073ffffffffffffffffffffffffffffffffffffffff16826001016040518082805460018160011615610100020316600290048015614dc15780601f10614d9f576101008083540402835291820191614dc1565b820191906000526020600020905b815481529060010190602001808311614dad575b50509150506000604051808303816000865af19150503d8060008114614e03576040519150601f19603f3d011682016040523d82523d6000602084013e614e08565b606091505b5050905080614e7f576040517f08c379a000000000000000000000000000000000000000000000000000000000815260040180806020018281038252601c8152602001807f566f7461626c653a2063616c6c207061796c6f6164206661696c65640000000081525060200191505060405180910390fd5b60018260000160046101000a81548160ff0219169083151502179055507f33fd8f5edaebafa8acc373f0bef6ca907a131bb5fdcc4d129b0512991f6335148260000160009054906101000a900461ffff16604051808261ffff16815260200191505060405180910390a1505b50565b6000600160008473ffffffffffffffffffffffffffffffffffffffff1673ffffffffffffffffffffffffffffffffffffffff16815260200190815260200160002060008373ffffffffffffffffffffffffffffffffffffffff1673ffffffffffffffffffffffffffffffffffffffff16815260200190815260200160002054905092915050565b600073ffffffffffffffffffffffffffffffffffffffff168373ffffffffffffffffffffffffffffffffffffffff161415614ffb576040517f08c379a0000000000000000000000000000000000000000000000000000000008152600401808060200182810382526024815260200180615ac36024913960400191505060405180910390fd5b600073ffffffffffffffffffffffffffffffffffffffff168273ffffffffffffffffffffffffffffffffffffffff161415615081576040517f08c379a00000000000000000000000000000000000000000000000000000000081526004018080602001828103825260228152602001806158a86022913960400191505060405180910390fd5b80600160008573ffffffffffffffffffffffffffffffffffffffff1673ffffffffffffffffffffffffffffffffffffffff16815260200190815260200160002060008473ffffffffffffffffffffffffffffffffffffffff1673ffffffffffffffffffffffffffffffffffffffff168152602001908152602001600020819055508173ffffffffffffffffffffffffffffffffffffffff168373ffffffffffffffffffffffffffffffffffffffff167f8c5be1e5ebec7d5bd14f71427d1e84f3dd0314c0f7b2291e5b200ac8c7c3b925836040518082815260200191505060405180910390a3505050565b60008061519861271061518a60065486614b6290919063ffffffff16565b61560a90919063ffffffff16565b90506007548111156151aa5760075490505b80915050919050565b60006151f583836040518060400160405280601e81526020017f536166654d6174683a207375627472616374696f6e206f766572666c6f7700008152506154be565b905092915050565b600073ffffffffffffffffffffffffffffffffffffffff168373ffffffffffffffffffffffffffffffffffffffff161415615283576040517f08c379a0000000000000000000000000000000000000000000000000000000008152600401808060200182810382526025815260200180615a716025913960400191505060405180910390fd5b600073ffffffffffffffffffffffffffffffffffffffff168273ffffffffffffffffffffffffffffffffffffffff161415615309576040517f08c379a00000000000000000000000000000000000000000000000000000000081526004018080602001828103825260238152602001806157b86023913960400191505060405180910390fd5b61531483838361557e565b61537f8160405180606001604052806026815260200161591b602691396000808773ffffffffffffffffffffffffffffffffffffffff1673ffffffffffffffffffffffffffffffffffffffff168152602001908152602001600020546154be9092919063ffffffff16565b6000808573ffffffffffffffffffffffffffffffffffffffff1673ffffffffffffffffffffffffffffffffffffffff16815260200190815260200160002081905550615412816000808573ffffffffffffffffffffffffffffffffffffffff1673ffffffffffffffffffffffffffffffffffffffff1681526020019081526020016000205461411190919063ffffffff16565b6000808473ffffffffffffffffffffffffffffffffffffffff1673ffffffffffffffffffffffffffffffffffffffff168152602001908152602001600020819055508173ffffffffffffffffffffffffffffffffffffffff168373ffffffffffffffffffffffffffffffffffffffff167fddf252ad1be2c89b69c2b068fc378daa952ba7f163c4a11628f55a4df523b3ef836040518082815260200191505060405180910390a3505050565b600083831115829061556b576040517f08c379a00000000000000000000000000000000000000000000000000000000081526004018080602001828103825283818151815260200191508051906020019080838360005b83811015615530578082015181840152602081019050615515565b50505050905090810190601f16801561555d5780820380516001836020036101000a031916815260200191505b509250505060405180910390fd5b5060008385039050809150509392505050565b615589838383614199565b61559161216d565b156155e7576040517f08c379a00000000000000000000000000000000000000000000000000000000081526004018080602001828103825260258152602001806159b16025913960400191505060405180910390fd5b505050565b60006156006155f961419e565b84846151fd565b6001905092915050565b600061564c83836040518060400160405280601a81526020017f536166654d6174683a206469766973696f6e206279207a65726f000000000000815250615654565b905092915050565b60008083118290615700576040517f08c379a00000000000000000000000000000000000000000000000000000000081526004018080602001828103825283818151815260200191508051906020019080838360005b838110156156c55780820151818401526020810190506156aa565b50505050905090810190601f1680156156f25780820380516001836020036101000a031916815260200191505b509250505060405180910390fd5b50600083858161570c57fe5b049050809150509392505050565b828054600181600116156101000203166002900490600052602060002090601f016020900481019282601f1061575b57805160ff1916838001178555615789565b82800160010185558215615789579182015b8281111561578857825182559160200191906001019061576d565b5b509050615796919061579a565b5090565b5b808211156157b357600081600090555060010161579b565b509056fe45524332303a207472616e7366657220746f20746865207a65726f2061646472657373426c61636b4c6973743a207370656e646572206164647265737320697320696e20626c61636b6c6973744552433230576974684665653a207472616e7366657220616d6f756e74206578636565647320616c6c6f77616e6365426c61636b4c6973743a20726563697069656e74206164647265737320697320696e20626c61636b6c69737445524332303a206275726e20616d6f756e7420657863656564732062616c616e63654f776e61626c653a206e6577206f776e657220697320746865207a65726f206164647265737345524332303a20617070726f766520746f20746865207a65726f2061646472657373566f7461626c653a206475706c696361746520766f74696e67206973206e6f7420616c6c6f776564426c61636b4c6973743a2073656e646572206164647265737320697320696e20626c61636b6c69737445524332303a207472616e7366657220616d6f756e7420657863656564732062616c616e6365426c61636b4c6973743a2074686973206164647265737320697320696e20626c61636b6c697374566f7461626c653a2074686973206164647265737320697320616c7265616479206120766f746572536166654d6174683a206d756c7469706c69636174696f6e206f766572666c6f775061757361626c653a20746f6b656e207472616e73666572207768696c65207061757365644552433230576974684665653a20616c6c6f77616e636520616d6f756e74206578636565647320616c6c6f7765644552433230576974684665653a207472616e7366657220746f20746865207a65726f206164647265737345524332303a206275726e2066726f6d20746865207a65726f2061646472657373434e4843546f6b656e3a20636f6e747261637420776173206465707265636174656445524332303a207472616e736665722066726f6d20746865207a65726f20616464726573734552433230576974684665653a207472616e7366657220616d6f756e7420657863656564732062616c616e636545524332303a20617070726f76652066726f6d20746865207a65726f2061646472657373566f7461626c653a20746869732061646472657373206973206e6f74206120766f746572566f7461626c653a206f776e65722063616e206e6f742062652072656d6f766564426c61636b4c6973743a206f6e6c792066756e6420696e20626c61636b6c69737420616464726573732063616e2062652064657374726f79434e4843546f6b656e3a20636f6e7472616374204e4f54206465707265636174656445524332303a2064656372656173656420616c6c6f77616e63652062656c6f77207a65726fa26469706673582212205126afdfb02ab531eaf5a284fd1868c7ece7c26bdfcfa4d5b42ff4861038911964736f6c634300060c00335061757361626c653a20746f6b656e207472616e73666572207768696c6520706175736564",
  "immutableReferences": {},
  "source": "// SPDX-License-Identifier: MIT\npragma solidity ^0.6.2;\n\nimport \"@openzeppelin/contracts/access/Ownable.sol\";\nimport \"@openzeppelin/contracts/GSN/Context.sol\";\nimport \"@openzeppelin/contracts/utils/Pausable.sol\";\nimport \"./BlackList.sol\";\nimport \"./Votable.sol\";\nimport \"./UpgradedStandardToken.sol\";\nimport \"./ERC20WithFee.sol\";\n\ncontract CNHCToken is ERC20WithFee, BlackList, Votable, Pausable {\n\n    address public upgradedAddress;\n\n    bool public deprecated;\n\n    constructor(uint256 _initialSupply, uint8 _decimals) public ERC20WithFee(\"CNHC Token\",\"CNHC\") {\n        _setupDecimals(_decimals);\n        _mint(_msgSender(), _initialSupply);\n    }\n\n    event DestroyedBlackFunds(address indexed blackListedUser, uint balance);\n\n    event Deprecate(address newAddress);\n    \n    // functions users can call\n    // make compatible if deprecated\n    function balanceOf(address account) public override view returns (uint256) {\n        if (deprecated) {\n            return UpgradedStandardToken(upgradedAddress).balanceOf(account);\n        } else {\n            return super.balanceOf(account);\n        }\n    }\n\n    function totalSupply() public override view returns (uint) {\n        if (deprecated) {\n            return IERC20(upgradedAddress).totalSupply();\n        } else {\n            return super.totalSupply();\n        }\n    }\n\n    function allowance(address owner, address spender) public override view returns (uint remaining) {\n        if (deprecated) {\n            return IERC20(upgradedAddress).allowance(owner, spender);\n        } else {\n            return super.allowance(owner, spender);\n        }\n    }\n\n    // Allow checks of balance at time of deprecation\n    function oldBalanceOf(address account) public view returns (uint256) {\n        require(deprecated, \"CNHCToken: contract NOT deprecated\");\n        return super.balanceOf(account);\n    }\n\n    // normal functions\n    function transfer(address recipient, uint256 amount) public override isNotBlackUser(_msgSender()) returns (bool) {\n        require(!isBlackListUser(recipient), \"BlackList: recipient address is in blacklist\");\n\n        if (deprecated) {\n            return UpgradedStandardToken(upgradedAddress).transferByLegacy(_msgSender(), recipient, amount);\n        } else {\n            return super.transfer(recipient, amount);\n        }\n    }\n\n    function transferFrom(address sender, address recipient, uint256 amount) public override isNotBlackUser(_msgSender()) returns (bool) {\n        require(!isBlackListUser(sender), \"BlackList: sender address is in blacklist\");\n        require(!isBlackListUser(recipient), \"BlackList: recipient address is in blacklist\");\n\n        if (deprecated) {\n            return UpgradedStandardToken(upgradedAddress).transferFromByLegacy(_msgSender(), sender, recipient, amount);\n        } else {\n            return super.transferFrom(sender, recipient, amount);\n        }\n    }\n\n    function approve(address spender, uint256 amount) public override isNotBlackUser(_msgSender()) returns (bool) {\n        require(!isBlackListUser(spender), \"BlackList: spender address is in blacklist\");\n\n        if (deprecated) {\n            return UpgradedStandardToken(upgradedAddress).approveByLegacy(_msgSender(), spender, amount);\n        } else {\n            return super.approve(spender, amount);\n        }\n    }\n    \n    function increaseAllowance(address spender, uint256 addedValue) public override isNotBlackUser(_msgSender()) returns (bool) {\n        require(!isBlackListUser(spender), \"BlackList: spender address is in blacklist\");\n\n        if (deprecated) {\n            return UpgradedStandardToken(upgradedAddress).increaseApprovalByLegacy(_msgSender(), spender, addedValue);\n        } else {\n            return super.increaseAllowance(spender, addedValue);\n        }\n    }\n    \n    function decreaseAllowance(address spender, uint256 subtractedValue) public override isNotBlackUser(_msgSender()) returns (bool) {\n        require(!isBlackListUser(spender), \"BlackList: spender address is in blacklist\");\n        \n        if (deprecated) {\n            return UpgradedStandardToken(upgradedAddress).decreaseApprovalByLegacy(_msgSender(), spender, subtractedValue);\n        } else {\n            return super.decreaseAllowance(spender, subtractedValue);\n        }\n    }\n\n    function burn(uint256 amount) public {\n        require(!deprecated, \"CNHCToken: contract was deprecated\");\n        super._burn(_msgSender(), amount);\n    }\n\n    // functions only owner can call\n    // open proposals\n    function openMintProposal(address _account, uint256 _amount) external onlyOwner{\n        _openProposal(abi.encodeWithSignature(\"mint(address,uint256)\", _account, _amount));\n    }\n\n    function openDestroyBlackFundsProposal(address _user) external onlyOwner{\n        _openProposal(abi.encodeWithSignature(\"destroyBlackFunds(address)\", _user));\n    }\n\n    // onlySelf: mint & burn\n    function mint(address _account, uint256 _amount) public onlySelf {\n        require(!deprecated, \"CNHCToken: contract was deprecated\");\n        super._mint(_account, _amount);\n    }\n\n    function destroyBlackFunds(address _user) public onlySelf {\n        require(!deprecated, \"CNHCToken: contract was deprecated\");\n        require(isBlackListUser(_user), \"BlackList: only fund in blacklist address can be destroy\");\n        uint dirtyFunds = balanceOf(_user);\n        super._burn(_user, dirtyFunds);\n        emit DestroyedBlackFunds(_user, dirtyFunds);\n    }\n\n    // pause\n    function pause() public onlyOwner {\n        require(!deprecated, \"CNHCToken: contract was deprecated\");\n        super._pause();\n    }\n\n    function unpause() public onlyOwner {\n        require(!deprecated, \"CNHCToken: contract was deprecated\");\n        super._unpause();\n    }\n\n    // deprecate\n    function deprecate(address _upgradedAddress) public onlyOwner {\n        require(!deprecated, \"CNHCToken: contract was deprecated\");\n        require(_upgradedAddress != address(0));\n        deprecated = true;\n        upgradedAddress = _upgradedAddress;\n        emit Deprecate(_upgradedAddress);\n    }\n\n    // hook before _transfer()/_mint()/_burn()\n    function _beforeTokenTransfer(address from, address to, uint256 amount) internal virtual override {\n        super._beforeTokenTransfer(from, to, amount);\n\n        require(!paused(), \"Pausable: token transfer while paused\");\n    }\n}",
  "sourcePath": "/Users/yuanchongyu/codes/eth/digital-currency/contracts/CNHCToken.sol",
  "compiler": {
    "name": "solc",
    "version": "0.6.12+commit.27d51765.Emscripten.clang"
  },
  "schemaVersion": "3.2.4",
  "updatedAt": "2020-10-30T06:03:40.876Z",
  "devdoc": {
    "kind": "dev",
    "methods": {
      "allowance(address,address)": {
        "details": "See {IERC20-allowance}."
      },
      "approve(address,uint256)": {
        "details": "See {IERC20-approve}. Requirements: - `spender` cannot be the zero address."
      },
      "balanceOf(address)": {
        "details": "See {IERC20-balanceOf}."
      },
      "decimals()": {
        "details": "Returns the number of decimals used to get its user representation. For example, if `decimals` equals `2`, a balance of `505` tokens should be displayed to a user as `5,05` (`505 / 10 ** 2`). Tokens usually opt for a value of 18, imitating the relationship between Ether and Wei. This is the value {ERC20} uses, unless {_setupDecimals} is called. NOTE: This information is only used for _display_ purposes: it in no way affects any of the arithmetic of the contract, including {IERC20-balanceOf} and {IERC20-transfer}."
      },
      "decreaseAllowance(address,uint256)": {
        "details": "Atomically decreases the allowance granted to `spender` by the caller. This is an alternative to {approve} that can be used as a mitigation for problems described in {IERC20-approve}. Emits an {Approval} event indicating the updated allowance. Requirements: - `spender` cannot be the zero address. - `spender` must have allowance for the caller of at least `subtractedValue`."
      },
      "increaseAllowance(address,uint256)": {
        "details": "Atomically increases the allowance granted to `spender` by the caller. This is an alternative to {approve} that can be used as a mitigation for problems described in {IERC20-approve}. Emits an {Approval} event indicating the updated allowance. Requirements: - `spender` cannot be the zero address."
      },
      "name()": {
        "details": "Returns the name of the token."
      },
      "owner()": {
        "details": "Returns the address of the current owner."
      },
      "paused()": {
        "details": "Returns true if the contract is paused, and false otherwise."
      },
      "renounceOwnership()": {
        "details": "Leaves the contract without owner. It will not be possible to call `onlyOwner` functions anymore. Can only be called by the current owner. NOTE: Renouncing ownership will leave the contract without an owner, thereby removing any functionality that is only available to the owner."
      },
      "symbol()": {
        "details": "Returns the symbol of the token, usually a shorter version of the name."
      },
      "totalSupply()": {
        "details": "See {IERC20-totalSupply}."
      },
      "transferOwnership(address)": {
        "details": "Transfers ownership of the contract to a new account (`newOwner`). Can only be called by the current owner."
      }
    },
    "version": 1
  },
  "userdoc": {
    "kind": "user",
    "methods": {},
    "version": 1
  }
}